{
  "contractName": "ExpenseTracker",
  "abi": [
    {
      "inputs": [],
      "payable": false,
      "stateMutability": "nonpayable",
      "type": "constructor"
    },
    {
      "anonymous": false,
      "inputs": [
        {
          "indexed": true,
          "internalType": "address",
          "name": "from",
          "type": "address"
        },
        {
          "indexed": true,
          "internalType": "address",
          "name": "to",
          "type": "address"
        },
        {
          "indexed": false,
          "internalType": "uint256",
          "name": "value",
          "type": "uint256"
        }
      ],
      "name": "Transfer",
      "type": "event"
    },
    {
      "constant": false,
      "inputs": [
        {
          "internalType": "uint256",
          "name": "qty",
          "type": "uint256"
        }
      ],
      "name": "Add_Income",
      "outputs": [],
      "payable": false,
      "stateMutability": "nonpayable",
      "type": "function"
    },
    {
      "constant": false,
      "inputs": [
        {
          "internalType": "uint256",
          "name": "qunty",
          "type": "uint256"
        }
      ],
      "name": "Add_Expense",
      "outputs": [],
      "payable": false,
      "stateMutability": "nonpayable",
      "type": "function"
    },
    {
      "constant": true,
      "inputs": [],
      "name": "Total_Balance",
      "outputs": [
        {
          "internalType": "uint256",
          "name": "",
          "type": "uint256"
        }
      ],
      "payable": false,
      "stateMutability": "view",
      "type": "function"
    }
  ],
  "bytecode": "0x608060405234801561001057600080fd5b5033600260006101000a81548173ffffffffffffffffffffffffffffffffffffffff021916908373ffffffffffffffffffffffffffffffffffffffff160217905550620186a0600181905550600154600080600260009054906101000a900473ffffffffffffffffffffffffffffffffffffffff1673ffffffffffffffffffffffffffffffffffffffff1673ffffffffffffffffffffffffffffffffffffffff16815260200190815260200160002081905550600260009054906101000a900473ffffffffffffffffffffffffffffffffffffffff1673ffffffffffffffffffffffffffffffffffffffff163073ffffffffffffffffffffffffffffffffffffffff167fddf252ad1be2c89b69c2b068fc378daa952ba7f163c4a11628f55a4df523b3ef6001546040518082815260200191505060405180910390a36101188061015b6000396000f3fe6080604052348015600f57600080fd5b5060043610603c5760003560e01c806396caf9e5146041578063d21f7f4614605d578063ee8bd9e9146088575b600080fd5b604760b3565b6040518082815260200191505060405180910390f35b608660048036036020811015607157600080fd5b810190808035906020019092919050505060bd565b005b60b160048036036020811015609c57600080fd5b810190808035906020019092919050505060d0565b005b6000600154905090565b8060016000828254039250508190555050565b806001600082825401925050819055505056fea265627a7a72315820b185682d0f7b3823d999f9b6b3ebce7f54393a22fdb59cfe474b9524cf6c699664736f6c63430005100032",
  "source": "pragma solidity >=0.4.22 <0.9.0;\r\n\r\ncontract ExpenseTracker {\r\n    mapping(address => uint256) private _balances;\r\n    event Transfer(address indexed from, address indexed to, uint256 value);\r\n\r\n    uint256  _Balance;\r\n    address private owner;\r\n  \r\n\r\n    \r\n    constructor() public {\r\n        owner= msg.sender;\r\n        _Balance=100000;\r\n        _balances[owner]=_Balance;\r\n        emit Transfer(address(this),owner,_Balance);\r\n    }\r\n    \r\n    function Add_Income(uint256 qty) public {\r\n        _Balance += qty;\r\n        \r\n    }\r\n    function Add_Expense (uint256 qunty) public {\r\n        _Balance -= qunty;        \r\n    }\r\n    function Total_Balance() view public returns (uint256){\r\n    return _Balance;\r\n    }\r\n\r\n}",
  "sourcePath": "F:\\PIAIC\\Expense Tracker\\contracts\\ExpenseTracker.sol",
  "compiler": {
    "name": "solc",
    "version": "0.5.16+commit.9c3226ce.Emscripten.clang"
  },
  "schemaVersion": "3.4.3",
  "updatedAt": "2021-10-30T05:51:34.772Z",
  "networkType": "ethereum",
  "devdoc": {
    "methods": {}
  },
  "userdoc": {
    "methods": {}
  }
}